:100000000C942A000C9488000C9434000C94340056
:100010000C9434000C9434000C9434000C94340090
:100020000C9434000C9434000C9434000C94340080
:100030000C9434000C9434000C9434000C94340070
:100040000C9434000C9434000C9434000C94340060
:100050000C94340011241FBECFE5D8E0DEBFCDBF25
:100060000E9470000C94BB000C940000613069F495
:10007000E82FF0E0218181E090E002C0880F991F15
:100080004A95E2F7822B81830895E82FF0E02181E1
:1000900081E090E002C0880F991F4A95E2F78095B1
:1000A00082238183089561110EC0E82FF0E0228140
:1000B00081E090E002C0880F991F4A95E2F7809591
:1000C000822382830895E82FF0E0228181E090E08E
:1000D00002C0880F991F4A95E2F7822B8283089508
:1000E0008FB780688FBF8BB780648BBF81E085BF7F
:1000F00041E061E089E30E94360042E060E080E395
:100100000E94360041E061E089E30E945300FACF8B
:100110001F920F920FB60F9211242F933F934F937C
:100120005F936F937F938F939F93AF93BF93EF935F
:10013000FF9341E060E089E30E9453002FE78AE1EA
:1001400096E0215080409040E1F700C000008AB75F
:1001500080648ABFFF91EF91BF91AF919F918F9182
:100160007F916F915F914F913F912F910F900FBEB3
:0A0170000F901F901895F894FFCF30
:00000001FF
