:100000000C942A000C9434000C9434000C943400AA
:100010000C9434000C9434000C9434000C94340090
:100020000C9434000C9434000C9434000C94340080
:100030000C9434000C9437000C9434000C94410060
:100040000C9434000C9434000C9434000C94340060
:100050000C94340011241FBECFE5D8E0DEBFCDBF25
:100060000E9436000C944B000C940000FFCF1F92AE
:100070000F920FB60F9211240F900FBE0F901F908A
:1000800018951F920F920FB60F9211240F900FBE6A
:0A0090000F901F901895F894FFCF11
:00000001FF
