:100000000C942A000C9434000C9434000C943400AA
:100010000C9434000C9434000C9434000C94340090
:100020000C9434000C9434000C9434000C94340080
:100030000C9434000C9434000C9434000C94340070
:100040000C9434000C9434000C9434000C94340060
:100050000C94340011241FBECFE5D8E0DEBFCDBF25
:100060000E946B000C949F000C94000085BBC1980B
:10007000C298C39A0000C39881E28A95F1F7000004
:1000800008958FEF84BB87BBC39883EF91E00197FE
:10009000F1F700C00000C198C29888E30E943600C2
:1000A0008EE00E94360081E00E94360083EF91E0EE
:1000B0000197F1F700C0000081E00E94360008952A
:1000C00085BBC19AC298C39A0000C39881E28A9501
:1000D000F1F70000089581E00E9488000E9441002D
:1000E00083EC99E00197F1F700C00000C1E49FE3C1
:1000F0002DE083E0915020408040E1F700C00000F7
:100100008C2F0E949A008C2F0E946000CF5FEFCF4F
:10011000813041F487B3806B87BBBE988DB1806519
:100120008DB90895811105C0BE9A87B38F7487BBBE
:100130006E9A08958FB9779BFECF8FB10895F8948A
:02014000FFCFEF
:00000001FF
